:020000022000DC
:1070000080500020DDA40200952A0300C9A40200DC
:10701000C9A40200C9A40200C9A402000000000023
:10702000000000000000000000000000B5A5020004
:10703000C9A402000000000051A50200C9A402007A
:1070400089A7020089A7020089A7020089A7020078
:1070500089A7020089A7020089A7020089A7020068
:1070600089A7020089A7020089A7020089A7020058
:1070700089A7020089A7020089A7020089A7020048
:1070800089A7020089A7020089A7020089A7020038
:1070900089A7020089A7020089A7020089A7020028
:1070A00089A7020089A7020089A7020089A7020018
:1070B00089A7020089A7020089A7020089A7020008
:1070C00089A7020089A7020089A7020089A70200F8
:1070D00089A7020089A7020089A7020089A70200E8
:1070E00089A7020089A7020089A7020089A70200D8
:1070F00089A7020089A7020089A7020089A70200C8
:107100007BB972B90029BEBF00204FF0004106E0F4
:1071100008BF00281CBF6FF000414FF0FF3000F0A7
:1071200057B8ADF1080C6DE904CE002909DB002B3E
:107130001ADB00F069F8DDF804E0DDE9022304B0B1
:107140007047404261EB4101002B1BDB00F05CF813
:10715000DDF804E0DDE9022304B0404261EB4101C7
:10716000524263EB43037047524263EB430300F028
:107170004BF8DDF804E0DDE9022304B0404261EBA6
:1071800041017047524263EB430300F03DF8DDF8E4
:1071900004E0DDE9022304B0524263EB430370478D
:1071A00053B94AB9002908BF00281CBF4FF0FF316E
:1071B0004FF0FF3000F00CB8ADF1080C6DE904CED3
:1071C00000F022F8DDF804E0DDE9022304B07047A6
:1071D000704700BF10F8012B11F8013B012A28BFAE
:1071E0009A42F7D0D01A7047034611F8012B03F8E2
:1071F000012B002AF9D17047034613F8012B002A0E
:10720000FBD1181A013870472DE9F04786468C46A5
:107210000846089E154674461946002B40F0C28069
:107220008542B2FA82F245D94AB1C2F1200300FA8E
:1072300002FC2EFA03F3954043EA0C0C94404FEA0B
:10724000154EA8B2BCFBFEF8230C0EFB18CC08FBB5
:1072500000F943EA0C43994528D9EB1808F1FF37A8
:1072600004D2994502D9A8F102072B44A3EB0903E4
:10727000A4B2B3FBFEFC0EFB1C330CFB00F044EA93
:107280000344A04214D92C190CF1FF3304D2A042BC
:1072900002D9ACF102032C44241A43EA07401EB180
:1072A000D440002334607360BDE8F0874746DDE7D3
:1072B0006346F1E792BB431B01214FEA154EAFB283
:1072C000B3FBFEFC200C0EFB1C330CFB07F840EA62
:1072D0000343984562D9EB180CF1FF3004D298456E
:1072E00002D9ACF102002B44A3EB0803A4B2B3FB18
:1072F000FEFC0EFB1C330CFB07F744EA0344A742D9
:107300004ED92C190CF1FF3304D2A74202D9ACF1AB
:1073100002032C44E41B43EA0040C0E7C2F120030F
:1073200020FA03F1954090402EFA03F303434FEA0D
:10733000154EAFB2B1FBFEFC0EFB1C10190C0CFB82
:1073400007F841EA0041884504FA02F422D9691895
:107350000CF1FF3004D2884502D9ACF10200294477
:10736000A1EB08019BB2B1FBFEFC0EFB1C110CFB58
:1073700007F743EA01439F420ED9EB180CF1FF31A6
:1073800004D29F4202D9ACF102012B44DB1B41EA3B
:10739000004192E76046E3E76146F7E76046A3E70E
:1073A0006346B7E7834206D916B9002108467BE752
:1073B000C6E900E0F9E7B3FA83F78FB9834201D356
:1073C000724508D8BEEB020460EB030301209C4623
:1073D0001EB9002168E73846FAE7C6E9004CF8E72D
:1073E000C7F1200CBB4022FA0CF41C432EFA0CF11E
:1073F00020FA0CF3B84001434FEA14490EFA07F59E
:10740000B3FBF9F81FFA84FE09FB18300B0C08FBDC
:107410000EFA43EA00439A4502FA07F240D9E3180C
:1074200008F1FF3004D29A4502D9A8F102002344A2
:10743000A3EB0A0389B2B3FBF9F809FB183308FB85
:107440000EFE41EA03418E452CD9611808F1FF3345
:1074500004D28E4502D9A8F10203214443EA004038
:10746000A0FB0298A1EB0E014145CE46434602D354
:1074700006D14D4504D2B9EB020E68EB0403013886
:10748000002EA6D0B5EB0E0261EB030101FA0CFC55
:1074900022FA07F34CEA0303F940C6E9003198E702
:1074A0004046C5E74346D9E72DE9F047064688B090
:1074B0000F4690460EF0C5FB4FF47A73A0FB0345D0
:1074C00003FB0155E40B012F44EA45444FEAD5354F
:1074D00007D1294922462B4630460AF0B5FB002049
:1074E00012E0D8F8047025483946FFF773FE70B1F2
:1074F00023483946FFF76EFE48B1304621493A46E7
:107500000AF0BEFB6FF0040008B0BDE8F08720462B
:10751000294617A3D3E90023FFF7F2FD05460C46E1
:1075200010461946184A0023FFF7EAFD80460F4629
:10753000104619464EF660220023FFF7E1FD824611
:107540008946104619464FF47A720023FFF7D8FD9A
:10755000CDE902A9CDE90623CDE90401CDE90087F3
:107560000A492A46234630460AF06EFBB7E700BFB9
:10757000005C260500000000D46D0300E56D0300EB
:10758000E86D0300F16D030080EE3600096E030024
:1075900030B5124889B009F035FF114D114900226C
:1075A0000023CDE9062300240523CDE90334CDE9EA
:1075B00001440D4B00944FF40052284608F012F994
:1075C0000A49284608F03EF8094809F01BFF094817
:1075D00009F018FF204609B030BD00BFB26C0300AF
:1075E000E0040020C0130020F9750200C66C0300FF
:1075F000D16C0300EC6C030008B5044809F002FFED
:1076000000214FF400400EF073FAF9E7FD6C03001F
:1076100030B50446EFF31185202383F31288BFF3BE
:107620006F8F044B0FCB84E80F0085F31188BFF3F5
:107630006F8F30BDA005002001281FB50C4605D076
:10764000042822D06FF0150004B010BD0EF0F9FA36
:10765000174AC30BC0F30E00A0FB0202C00B43EAA3
:10766000414340EA4240C90BC4E90031A06068468A
:10767000FFF7CEFF6946204609F092FE18B90D4B80
:107680000FCB84E80F000020DEE70EF0DAFA084A9C
:10769000C30BC0F30E00A0FB0202C00B43EA414340
:1076A00040EA4240C90BC4E90031A060EBE700BFEB
:1076B00000CA9A3BB065030001287FB50C4634D15F
:1076C0008A681B4B9A4230D80EF0BBFAC20B42EAD2
:1076D000414252424FEAD13363EB4303CDE90023E9
:1076E000144AC0F30E00A0FB0202C30B43EA42435C
:1076F0006D465B422846029300F0E6F82146284694
:1077000009F04EFEEFF31186202383F31288BFF3B6
:107710006F8F95E80F00084C84E80F0086F31188FE
:10772000BFF36F8F002004B070BD6FF01500FAE753
:10773000FFC99A3B00CA9A3BA0050020014B1B6879
:10774000184700BFD0000020014B1860704700BFF1
:10775000D000002030B585B004460D46102200212F
:1077600068460EF07DFB02238DF802302A46044B5A
:1077700001932146684609F0DDF905B030BD00BF30
:107780003D77020080B505460E461746984608F03C
:1077900083FB03460EF02CFCDFF81890044649F8F2
:1077A0000030424630463946A84754F8090002F0F6
:1077B000B9FE00BF080000002DE9F84344690569DF
:1077C000C76840F26C73E1170135E41841F100011C
:1077D000022D8CBF00230123E41A61F1000100296E
:1077E000064607F1FF3751DA6FF4C77020184FF4DF
:1077F000C8724FF0000361F10001FFF781FC264BD6
:1078000003FB0044D6E90083B6684FEAE37C4FF0FF
:107810003C0E99466346C6FB0E93A9FB0EC60EFBB3
:107820000366A30840F26D1E022D0EFB04330246D0
:107830003B448CBF6FF00200092064270544B4FB71
:10784000F7F499201B1B154C45431CEB080C4FF01B
:10785000050005F10205B5FBF0F5A2FB04202B4461
:1078600004FB010146EBE87698180D4A41F100034C
:1078700080180C4A63F10003A0FB020102FB031114
:1078800010EB0C0041EB0601BDE8F8834FF4C87221
:1078900000232046B1E700BF70FEFFFFB13A0200AF
:1078A0009405F5FF8051010010B5FFF785FF0246F2
:1078B0000EF09EFB0B460349002444501046194627
:1078C00010BD00BF0C00000070B5204B82689A42CA
:1078D00016DDD0E90016012976F1000503F1010358
:1078E00092FBF3F34FEAE3741DDAC91844EB060484
:1078F000C0E90014164901FB03238360012070BD19
:10790000002AFBDAD0E900410029124EA3EB020362
:10791000B3FBF6F310DA01F100459C4275F1000566
:107920000ADA0020EBE7CD439D426FF00045A5EB5E
:107930000605A541D9DAF4E7E41A61F1000106FB76
:107940000322C0E900418260D8E700BFFFC99A3B2B
:10795000003665C400CA9A3B2DE9F047058B044602
:107960002807904611D4022905F0070540F0CC8085
:10797000204609F06FFD78B10138218B042811D819
:10798000DFE800F0C2106D85950001290CBF45F0BD
:10799000100545F02005258388F31188BFF36F8F0C
:1079A000BDE8F08701F0070AAA4500F0A58000278E
:1079B000B9463E46A368002B00F0BC8041F00801A8
:1079C000218388F31188BFF36F8FA168002900F02D
:1079D000BA800D68002900F0B680D1F804803346E3
:1079E00052462046C047002D76D02B6829461D46BA
:1079F000F0E701F007035A1F012A1BD8002221F0EB
:107A00000701062B276889B2C4E9002209D13B4649
:107A100003E0628B013262831B68002BF9D141F0D5
:107A200002012183204609F015FD00287AD041F09B
:107A3000200176E0042B0AD121F0070189B22183CD
:107A4000204609F007FD10B141F020012183218B70
:107A500001F0070AAA454FD00027B946AAE72369D3
:107A600021F0070141F00601062DD3F80090218393
:107A70002DD1B9F1000F3FD041F00801218388F3E7
:107A80001188BFF36F8F3A492046C84729E021F09B
:107A90000701236941F0040189B2042DD3F8049051
:107AA0002183E6D000273E464FF0040A82E721F00A
:107AB0000701236941F0050189B2052DD3F808902B
:107AC0002183D6D000273E464FF0050A72E70027F3
:107AD0003E464FF0060A6DE72B4687E7B9F1000FE7
:107AE000D1D1EFF31188202383F31288BFF36F8F76
:107AF000238B23F008032383258BEA062ED525F05C
:107B00001003238305F007056669218B002EBFF65D
:107B100070AF00232768C4E9003321F0070141F06A
:107B200001012183218B01F0070AAA454FF00009CA
:107B30007FF440AF002F9CD041F00801218388F3EF
:107B40001188BFF36F8F002FC8D03D683946334688
:107B50005246204609F0AAFC2F46F4E7AB067FF513
:107B60001BAF25F02003238305F0070500E700BFC6
:107B7000D9140300014B036000207047186603000E
:107B800007B51B491B480BF05EFA70BB1A49194830
:107B90000BF059FA48BB194916480BF054FA20BBB0
:107BA000174914480BF04FFAF8B90146154A114825
:107BB0000BF012FDC8B9024613490E4801230BF021
:107BC000E6FD90B901230093014602230948EF2204
:107BD0000BF059F948B907480BF07EF928B9054868
:107BE00003B05DF804EB0BF0A7B903B05DF804FB3C
:107BF000480100205004002030010020180100201E
:107C000000010020D4000020186D030010B50446C8
:107C10000DF0A6FB0349024620460AF015F80020A5
:107C200010BD00BF7F6D030073B5134600220192A3
:107C3000044601AA58680A2101F0E6FC019D95B9A5
:107C400020EAE0744FF40046294640F2E7304FF452
:107C50007A720023C4FB0601FFF7A2FA0DF048FF79
:107C6000284602B070BD2A46024920460AF008F8AC
:107C7000019DF5E7AB6D030008B5034A034909F020
:107C8000E3FF002008BD00BF9B6E0300A16E030050
:107C900007B500230090694604488DF8043008F0C9
:107CA0005DFA9DF8040003B05DF804FBA51703001E
:107CB00010B5044606F028F807490246204609F0A8
:107CC000C3FF2046054909F0BFFF0548214608F0DB
:107CD0005FFA002010BD00BFE36E0300026F0300D7
:107CE000E57C020070B58EB004460D46D0F8A86061
:107CF0000DF038FE03460EF07BF9214A2149105859
:107D0000214A002B18BF1A460092204A234684427B
:107D100018BF0A4628461E4909F096FFD4E90A23EF
:107D2000CDE90023284694F90E30227B194909F049
:107D30008BFF06A92022204607F094FC236F1649EA
:107D40000246284609F080FF05A920460DF018FEDE
:107D5000024628B11149284609F076FF0EB070BDE1
:107D6000059B6422F11A4A430091B2FBF6F20C49DA
:107D7000CDE901622846324609F066FFEEE700BF12
:107D8000080000005D7903000C6F03002D850300DF
:107D90000F6F03001B6F0300476F03005E6F03004C
:107DA0008B6F0300F0B5002591B00446294608AF5B
:107DB0001C2209A80EF054F8134E1A22202138462E
:107DC0000EF04EF82146114808F0E2F907AA4FF4E8
:107DD000006130460DF0C8FD079A0097C2F50061BA
:107DE00064234B43DB0A05934FF40063CDE903138F
:107DF000CDE90132204606492B46A6F1400209F0A2
:107E000023FF284611B0F0BD00430020157E02007C
:107E1000DC6F030070B50446D0F8A86088B00D464A
:107E200007A90DF0ADFD024628B10F49284609F01B
:107E30000BFF08B070BD20460DF094FD079B009627
:107E4000F11ACDE90131094B64224A43002818BFD9
:107E50000346B2FBF6F20649CDE903622846224604
:107E600009F0F2FEE5E700BF5E6F03000C6F030050
:107E70002570030038B513460546102258680021C6
:107E800008F06CFD0446FFF703FF38B90E4922469F
:107E9000284609F0F5FE6FF0150038BD0EF0A8F881
:107EA0000A4B1B589C4204D10949284609F0E8FEB8
:107EB000F1E7204607F0ACFD28460649224609F0C6
:107EC000C3FE0020E9E700BF89700300080000003E
:107ED000A4700300CC70030038B513460546102289
:107EE0005868002108F03AFD0446FFF7D1FE38B982
:107EF0000E492246284609F0C3FE6FF0150038BD32
:107F00000EF076F80A4B1B589C4204D109492846CA
:107F100009F0B6FEF1E7204607F098FE284606492C
:107F2000224609F091FE0020E9E700BF89700300B6
:107F3000080000000B7103003171030038B51346CF
:107F4000054610225868002108F008FD0446FFF796
:107F50009FFE38B90E492246284609F091FE6FF07F
:107F6000150038BD0EF044F80A4B1B589C4204D152
:107F70000949284609F084FEF1E7204602F0D2FACA
:107F800028460649224609F05FFE0020E9E700BFC7
:107F900089700300080000006C71030091710300F8
:107FA00010B50C4600210AF02FF900B10068034A11
:107FB00020600023C4E90123E36010BDB172030017
:107FC00010B50C4600210AF023F900B10068034AFD
:107FD00020600023C4E90123E36010BDB1720300F7
:107FE00070B50646506815460AF016F9044640B9C1
:107FF0006A681049304609F043FE6FF012042046CB
:1080000070BD0DF088FA30B16A680B49304609F04E
:108010000DFE0024F3E720460DF074FA044630B15B
:1080200003466A680549304609F02AFEE7E76A68B0
:108030000349EBE7C9710300DE710300007203001E
:108040002D7203002DE9F04F8FB0044601A80F46B2
:10805000904606F043FD019B242202FB003B0821D1
:108060002B4A204609F0D5FD019D5D4503D3002034
:108070000FB0BDE8F08F2E680EB1337833B9254AC2
:108080002B46302102A808F0C9FB02AE022F07D10F
:10809000D8F8041030460DF036FF08B92435E4E76F
:1080A0001D4A33460821204609F0B3FD28460DF04D
:1080B00032FA1A4A1A4B0821002808BF1346194AF7
:1080C000204609F0A6FD2B6A002BE7D01E68002E83
:1080D000E4D03368002BE1D0134A0821204609F090
:1080E00098FDB2464FF000093368104A4B4505D859
:1080F0000F4A0821204609F08CFDCFE75AF8043FCB
:108100000821204609F085FD09F10109ECE700BFCF
:10811000607203006A7203006F72030057720300FB
:1081200051720300D7710300747203007072030070
:10813000C06F03001FB50C68D1E9043203944C688A
:1081400002948C680194C96800910133034902F2DA
:108150006C7209F079FD04B010BD00BFFB72030022
:10816000F7B513783A2B06460F46154614D1541C22
:1081700023783A2B28D101340A2201A9204608F09D
:1081800077FB019A3860A242034617D01078A8B94D
:108190003C2B15D915490EE00A2201A9284608F002
:1081A00067FB019CB860AC4208D023783A2B05D11C
:1081B000172807D90E49304609F062FD6FF0150007
:1081C00003B0F0BD0134D3E70A2201A9204608F02C
:1081D0004FFB019B7860A342F0D01A783A2AEDD188
:1081E0003B2801D90349E6E75C1CC5E73A73030065
:1081F0001C7303002A7303002DE9F04190B00D4673
:10820000044602A901201746FFF716FA07A902A89B
:1082100008F056FA032D55D17D680A2201A9284697
:1082200008F026FB019EB542804615D032782D2AF3
:1082300012D101360A2201A9304608F019FB019B30
:108240009E4209D01A782D2A06D1451E0B2D0CD935
:108250002849204609F014FD204609F046FD6FF03C
:108260001505284610B0BDE8F0815E1C0A2201A960
:10827000304608F0FDFA019B9E42EDD01B78002BA2
:10828000EAD1431E1E2B01D91B49E2E7A8F26C7309
:10829000CDE90B53BA680A9007A92046FFF760FFA3
:1082A0000028D9D107A8FFF7FFFAB1F1FF3F08BFB7
:1082B000B0F1FF3FCDE9020108D11049204609F095
:1082C000DFFCCCE7022DC7D17A68E5E700230493F1
:1082D000012002A9FFF7F0F9054628B10246084936
:1082E000204609F0CDFCBAE707A92046FFF722FF98
:1082F000B7E700BF4A7303005973030066730300B6
:108300008F7303002DE9F341144688460746102277
:108310006068002108F022FBB8F1020F064607D87A
:10832000284A20230821384609F073FC336816E0F8
:108330000A220021A06808F011FBC5B2214A2B4691
:108340000821384609F065FCB8F1030F1ED1102D45
:108350000FD0202DEAD0082D0ED13378DBB20022C9
:10836000CDE900320821184A384609F052FC0020B5
:1083700009E033889BB2F2E73846144A082109F035
:1083800048FC6FF0150002B0BDE8F081E0681022F3
:10839000002108F049FB0E4ACDE9000104460821FE
:1083A000384609F036FC102D06D0202D07D0082DB8
:1083B000E2D1E4B23470DAE7A4B23480D7E73460B3
:1083C000D5E700BFD4730300FF730300E973030014
:1083D000127403002DE9F04F87B000230193524B34
:1083E000DFF848A191460122074688461A6002F04C
:1083F00077FB4FF0FF3520262C4649465246404633
:1084000002F092FB411C06D16A1C41D14849384612
:1084100009F036FC17E073281AD0772828D0612895
:1084200011D1DFF810B101AADBF80000102101F032
:10843000EBF8019B0546002BDFD0DBF800203E491E
:10844000384609F01DFC6FF0150007B0BDE8F08F4D
:10845000DFF8E0B001AADBF80000002101F0D4F859
:10846000019B0446002BC8D0DBF800203349E7E726
:10847000DFF8C0B001AADBF80000002101F0C4F869
:10848000019B0646002BB8D0DBF800202C49D7E72B
:10849000631C01D12B49BAE75FFA86F8C6F3C4061C
:1084A000002C3FD002AB29461A46A6EB050C0CE087
:1084B000B8F1100F1DD0B8F1200F20D0B8F1080F7F
:1084C0002AD10878187031443344A64203D80CEB03
:1084D00001001028ECD9102CA14628BF4FF010093C
:1084E00029464B46384600F077FF1035A4EB0904C7
:1084F000D6E7088880B21870000A5870E3E7086869
:1085000018704FEA102E83F801E04FEA104E000E6B
:1085100083F802E0D870D6E70B4A0821384609F004
:1085200078FB90E7204690E7A801002062740300E2
:1085300069740300E40E0020287403003B740300F8
:108540004E74030086740300E973030070B50F4E88
:10855000044633780D4671B123B1BDE870400C4933
:1085600009F08EBB012333700A49204609F06CFBE9
:108570000123337004E083F001033370002BF3D147
:1085800029462046BDE8704009F0C9BB40130020D1
:10859000A0740300DB7403002DE9F041DFF8F080E4
:1085A0003C4E05460C468F18A74201D1BDE8F0812C
:1085B00098F8002014F8013B182A22D1112B20D161
:1085C000354C364922680026284688F8006009F0B4
:1085D0003BFB28463146FFF7B9FF314B187800289E
:1085E000E4D1304A23681168042B2EDC08B12360E3
:1085F000116013F003012FD1126813681BBA1360C6
:10860000D4E7A3F13002092A88F8003004D923F016
:108610002002413A052A04D83168234A53540131D3
:1086200031603368022BBFD110221F48002108F0AF
:1086300095F91E4A136803F8010B1360164A136874
:108640000133136000233360AEE7086800BA41F8D5
:10865000040B043B0120C7E75B4203F0030358BF50
:108660005942022904D1126813885BBA9BB2C6E74B
:1086700003299BD1106802681104C2F3074301F477
:108680007F010B4302F47F42134303608EE700BF78
:1086900041130020100C0020140C0020057503006D
:1086A00042130020180C0020431300201C0C002053
:1086B0002DE9F84F0C462B49DFF8AC80DFF8AC9081
:1086C000DFF8ACB000230B602A4988F8003006467A
:1086D0000B601546012C2F4655F804AF1ED9022217
:1086E000494650460DF0E1FB80B99AF80220003A65
:1086F00018BF012292442049022250460DF0D5FBBA
:1087000030B9012388F80030013CE3E70022F1E7AB
:1087100049465046FEF75EFDA8B9043700221146CF
:10872000786808F01BF9154B00221146186078682C
:1087300008F014F9124B134918603046FFF706FF92
:108740000020BDE8F88F9AF800202D2AE6D19AF88B
:108750000120002AE2D052465946304609F074FA08
:10876000D2E700BF100C0020421300201F75030049
:1087700025750300140C0020227503001C0C00203A
:10878000180C00209985020013B509480CF0C3FEAF
:1087900058B1084A0649126807480024009401238A
:1087A00000F080FE204602B010BD6FF01200FAE724
:1087B00000610300346703004864030038B544686F
:1087C000C4E90012A36044682346402253F8405B8A
:1087D00063626263002304F13802C4E90423C4E93C
:1087E0000A33C4E90633082223632262C4F8B8308E
:1087F000AB682BB11B6C1BB1094922462846984730
:10880000AB681B6A0BB1284698470649002204F161
:1088100080000DF05EFAC4F8B440002038BD00BFFF
:10882000DD180300BD18030010B581680446183137
:1088300001F07CF9A168034A20461831BDE81040D8
:1088400001F00CB9A076030038B58368D3F878320C
:10885000DB0704461AD4406803685B6898470546FE
:1088600020B9E0680AF0B4F8A3681D75A3685B6CD2
:1088700013B1294620469847A3680DF0B9FB0022A2
:10888000C3F89822034B185801F04CFE6FF00F0507
:10889000ECE700BF08000000014909F0E2B800BFA2
:1088A000C06F03002DE9F04FA7B004465422002109
:1088B00011A80DF0D5FA0023CDE90533A3682046B1
:1088C0005633029309F0C4FD204609F008FD10B9A3
:1088D0006069FFF7E1FFA0681422002118300DF055
:1088E000BFFA204609F055FCA168E068B1F85020B5
:1088F000563100260AF031F820460AF092F84FF07F
:10890000FF38B246039611AFB3463546B146DDE9AE
:108910000532012A6CD0132B6DD8B8F1000F2BD182
:10892000BBF1000F0AD020460AF09CF8A26814237D
:10893000563211A90DEB030009F0AAFAB9F1000FA4
:108940000CD099F81130FE2B08D1059B26AA02EB1A
:10895000830252F8542C0AB101330593A068059D97
:10896000436A002B40F0B580C6B1C3699E422BD04C
:108970000D9600F1180522E0029A0223394606A856
:1089800009F086FA06997A680292034631B1012904
:108990000AD148B1694A204609F009FE6FF007057F
:1089A000284627B0BDE8F08F059B002B32D03868F1
:1089B00001F0EEF898B166B1A5680D9618350CAEC9
:1089C0000FCE0FC533682B602046FFF72DFF012522
:1089D000E6E75B4A0121204609F0E9FDDEE7059B59
:1089E000C3B13A682946204601F074FA022809D139
:1089F000059B132B94D9069B022B91D1514B524AC4
:108A00000121C8E7032805D0059B013305934FF0EA
:108A1000010B7CE7039B2BB9396807AA484609F08C
:108A20002EFB0546043708F1FF38A5B3EB68BBF110
:108A3000000F08D0FBB1204609F00AFD204609F0DE
:108A400065FC424AC6E7B3B1A368DDF814A0AE46A0
:108A500003F1180CBEE80F00ACE80F00DEF80030A0
:108A6000CCF80030AB6833B96B7CFE2B04BF95F8B3
:108A7000108008F1FF38D5F804C0BCF1000F08D011
:108A8000AE46BEE80F000CAE0FC6DEF80030336015
:108A90006646A94603E0059B63B101230393069B49
:108AA000B8F1000F02D1022B7FF431AF059B0133E7
:108AB00005932CE7A368DB6A13B1DB68002BECD1CC
:108AC000234B0093234A119B0121204609F06FFD9F
:108AD000E3E790F82830A5EB0A05BBB190F8291020
:108AE0004FF6FF72FF2918BF0A469D4202D3134476
:108AF0009D420BD98369184A0121204609F057FD90
:108B00002046FFF791FE6FF0150549E7012108F0B7
:108B1000C7FFA06808F0B8FFA36811AA29465B6ADE
:108B200002EB8A02204698470546A06808F0B0FF8D
:108B3000A068002108F0B4FF32E700BFAE76030062
:108B4000C276030023770300056E0300E07603007E
:108B50000F7703001D7A030047770300F7B504463B
:108B60008068D0F878325A070D4605D5002108F004
:108B7000A2FFE06809F0C3FEE368DB6873B9002D6B
:108B80003BD0A66806F15607384608F077FF002864
:108B900035D0394606F5AB70FEF726FBA268E068D3
:108BA0000DF106035632294609F0ACFE58B9A0680B
:108BB00000F5AB715630FEF717FBA068563008F091
:108BC0005DFFADF80600204609F03BFCA368D3F832
:108BD00074329B0603D50B49606908F042FF2046BA
:108BE00000F078FDA268BDF80630A2F85230A26805
:108BF0002046A2F8503009F089FB03B0F0BD86F89A
:108C00005601CBE7D065030010B5836802221A75C0
:108C100083689B6C0446BBB908F0FAFE8368D3F8FE
:108C20007832DB040BD50321084B094A09F0BFFC5D
:108C3000A0686FF4805100F51E7008F003FF204615
:108C4000BDE8104000F0CCBE10BD00BF627703004D
:108C5000717203002DE9F04F04468068B1B0012124
:108C600000F51E7008F0DFFEA3681B7D022B26D1E5
:108C700000230993A36860689E6C03681D6909ABB3
:108C80003EB310221BA9A847099BC3B10121A068CC
:108C900008F006FFA06808F0F7FE099A1BA9204615
:108CA000B047A06808F0F4FEA068002108F0F8FEC4
:108CB000A3689B6C002BDDD12046FFF7A5FFA068C1
:108CC0006FF0010100F51E7031B0BDE8F04F08F003
:108CD000B9BE01220DF12301A847099B002BEED05C
:108CE0009DF923209DF82330A068002AC2DB427D35
:108CF000032A00F2F482DFE812F0040075028C020D
:108D0000F2020D2B67D00A2B43D0B0F87822092B42
:108D10006FF3CA02A0F8782272D029D8002B00F095
:108D20000381082BA06800F0E9810246D2F8741292
:108D3000890740F1F980013B162B00F2F580DFE84E
:108D400013F0B702FA01FE01F601B1021002F300BE
:108D5000F300F300F30014021802F3002D02F300F5
:108D60003202F300F300F300F3003402F30049028F
:108D70001B2BA06841D07F2B00F0CC81A3F12001F8
:108D80005E290246D2D8012108F095FE9DF82310F5
:108D9000B8E0D0F87822C2F3C7022AB1D0F878221E
:108DA000C2F3C7020A2AC0D1B0F8782263F3CA021C
:108DB000A0F87822A568B5F85010C1B9284608F087
:108DC0007AFEE06809F09BFD6069FFF765FD2046CB
:108DD000FFF71AFF4EE7D0F87822C2F3C702002A45
:108DE000E2D0D0F87822C2F3C7020D2ADBE7204692
:108DF000FFF758FDC5F89C02E9E70123437593E0AE
:108E0000A068D0F874329B0740F18E80012108F0F1
:108E100052FEA068B0F85030FF2B00F08580B0F80B
:108E2000522000F1560100F5AB700CF0F1FFA36881
:108E3000B3F852201344002583F85651A2681BA9A9
:108E4000142302F5AB720BA809F022F80B99142930
:108E50006AD830AB03EB810343F8545CA368B3F8E2
:108E60005220002A52D0134493F85530202B02D0C0
:108E7000093B042B4AD800294BD100250A950A9BAF
:108E800030AA02EB8303002653F854AC504608F096
:108E9000F5FDB3468146B046374616AA3946284600
:108EA00000F078FB0346002842D1012E68D10A9BCE
:108EB00030AA02EB830353F8540C08F0DFFDA268DC
:108EC000064618324146284600F064FB05682846ED
:108ED00008F0D4FD864205D0821B92B2A919204623
:108EE00009F0ACFBA068B0F85230034493F8563058
:108EF000202B34D0093B042B31D9D0F87432DF0752
:108F000032D42021204600F033FD0DE00129B4D9F0
:108F1000013900200CAB009301900AAB1BAA09F0A9
:108F2000D9F805460028AAD1606908F0FEFEA1E63E
:108F30001B6803934A46514618460CF0B6FF60B9C9
:108F4000039B1846FEF758F9584538BF58461FFA94
:108F500080FB002E08BFB846013601379DE701218E
:108F6000204609F007FADFE7002108F0AEFD2021D6
:108F7000204600F0FDFCA068012108F0A6FDD3E723
:108F80000490D1D90A9A30AB03EB8202C14652F861
:108F9000543C0393184608F071FDA268049B0590A9
:108FA000A2F840300496A26849461832284600F0DC
:108FB000F1FA039BD0F800A009F101094BB1BAF115
:108FC000000F06D0059A194650460CF06EFF002897
:108FD000E9D1A168BAF1000F4ED1A1F840A0049BDD
:108FE000013B0493DFD16069FFF756FC204600F097
:108FF000F7FC0A9B30AA02EB830308F1010A53F83D
:10900000540C08F03BFD414611AA8146284600F069
:10901000C1FA0746A0683968FF2200F5AB700CF072
:1090200056FF3B6803934FF6FF77B84616AA5146A2
:1090300028460AF1010B00F0ADFA002852D0A168D1
:10904000036801F25511002211F801EF985C704598
:1090500003D110B101324245F6D1B9F1000F01D070
:109060004A4507DBBA4206F1FF36A8BF3A46012E51
:1090700097B237D0DA46D9E79A48069108F0FEFC55
:10908000069907914A8F00EB0B07BFB2121A5046A0
:1090900092FBF7F292B2069208F0F0FC0799069A5A
:1090A0003F1AB1F8400000F1010CA1F840C0B0FB3C
:1090B000F2F102FB110080B2BFB260B9894B8A4A5B
:1090C000CDF800A00621204609F071FA3946204665
:1090D00000F0EAFA83E7854A53460621204609F064
:1090E00066FAF3E7002F3FF41FAF0399A7EB0902DD
:1090F00092B24944204609F0A1FA15E7D0F874323B
:109100009E077FF511AF012108F0D5FC204609F03C
:10911000B6FA09E7D0F874329D077FF505AF012153
:1091200008F0C9FCA368D3F874321807EED42046BF
:1091300009F086FAF8E6204609F093F9F4E62046AD
:1091400009F086F9204609F0CAF810B96069FFF7FE
:10915000A3FBA068012108F0AEFC2046FFF754FDF8
:10916000E2E6204609F086F9DEE6204609F08DF9B0
:10917000DAE6D2F874329F0603D55D49606908F0DB
:1091800070FCA368D3F874329E0603D55949606910
:1091900008F067FC204600F023FCC5E600212046CD
:1091A000FFF7DCFCC0E60121F9E7204609F049F9A8
:1091B000204608F02DFC0121A06808F07CFCA36883
:1091C000D3F874329D067FF5AFAE4B49606908F065
:1091D00048FCA9E6204600F0F7FAA068012108F053
:1091E0006AFCA1E65B2B01D1022307E6D0F87422CA
:1091F000900706D5622B08D14FF0FF31204609F0C9
:10920000E2F8A36800225A758EE6662BF9D1012197
:10921000F4E700224275A268D2F8741289077FF53C
:1092200029AD313B1B2B3FF67FAE01A151F823F056
:10923000AD920200B9920200CD920200A19202000A
:10924000298F0200298F0200298F0200298F020036
:10925000298F0200298F0200298F0200298F020026
:10926000298F0200298F0200298F0200298F020016
:10927000A79102009D9102006391020037910200C4
:10928000298F0200A5920200298F0200B1920200EC
:10929000298F0200298F0200298F0200BD9202004F
:1092A00003235375204609F0D3F83DE60323537595
:1092B000204609F0C6F837E603235375A068D0F8B6
:1092C000741201F0010181F0010156E60323537588
:1092D000A368D3F874329B077FF526AE27E70023F7
:1092E0008CE500BF5C790300A67703007172030070
:1092F000D5650300DA650300D06503002DE9F3416D
:1093000004468068154600F51E70002935D04FF4DC
:10931000804108F088FBA368DD6460680368002171
:109320009B68984770BB204608F00DFC50BB174D5A
:10933000DFF85C804FF0FF364FF0FF37A06800F594
:109340001F7000220721CDE900670CF057FDA068CF
:1093500008F09EFB2A460421204608F0C5FB204663
:109360004246012108F0C0FB606803685B6903B1F5
:109370009847A06808F088FBE0E76FF4804108F0A8
:1093800061FBC8E702B0BDE8F08100BF4988020078
:10939000558C020010B50B49044608F055FC2046D8
:1093A000094908F051FC2046084908F04DFC2046C8
:1093B000074908F049FC2046064A002100F04EFB10
:1093C000002010BDAC770300EA7703004978030062
:1093D0009D78030038790300F8B517461E460A4603
:1093E0002949044608F030FC3EB33A782749204624
:1093F00008F02AFC01256A0703D12549204608F018
:1094000023FCAE421ED97A5D2049204608F01CFCA0
:109410000135102DEFD11F49204608F015FCB6B9D3
:109420001B49204608F010FC0125AE422B4610D8FF
:109430001749204608F008FC15E01749204608F0B7
:1094400003FC01251449204608F0FEFBE0E7002557
:109450002B46FA5C1149A2F120035F2B28BF2E2274
:10946000204608F0F1FB0135102D06D06B07DCD14A
:109470000749204608F0E8FBD7E720460849BDE841
:10948000F84008F0E1BB00BF4E79030055790300B6
:109490005D7903005F7903005B7903008179030044
:1094A000617903002DE9F04104468068D0F89862A4
:1094B00088B0884615461F46002E4FD14FF42872BB
:1094C00031460CF0CDFCA06800F51F700CF08AFC52
:1094D000A06800F52270012211460CF0BAF9A369C8
:1094E0001E60A068022100F51E7008F09CFAA368B7
:1094F00050225A87A36818221A872168204608F04C
:10950000CDFBA368174A66F38205C3F874526068FE
:10951000036841461D682346A8470546D0B9A3689D
:1095200001221A75D4E9090100220023CDE906239E
:109530000E2303930E9B0495CDE9017300940A4B0F
:109540004FF4006206F04EF9A368C3F89802216A4E
:1095500006F078F8284608B0BDE8F0816FF077058E
:10956000F8E700BF211B0300FD92020010B504467E
:1095700013460A460146064801F070FA23691B7932
:1095800023B12046BDE8104008F0CFBB10BD00BF9E
:10959000431D030038B50B46154648B91449154A12
:1095A000521AB3EB920F05D251F82350284638BD1A
:1095B00084680CB90025F9E70F4A94420AD30F4A90
:1095C000944207D218462268294690472B68002B00
:1095D000ECD1EFE70A4A944202D30A4A944205D3F7
:1095E000246814225343E518E358F0E70133F8E701
:1095F00074640300A0640300A4650300AC65030069
:10960000A0640300A4650300F7B503782D2B04467E
:10961000164605D16FF015033360002003B0F0BD8E
:109620000CF0E6FC0B4F00230546C3510A462046CA
:1096300001A907F093F9EB59222B02D16FF0210316
:10964000EAE7002BE6D1019BA342E3D01B78002B75
:10965000E4D0DFE70C0000008368D3F874329B0687
:1096600003D50249406908F01BBE7047E06503005E
:10967000014908F015BE00BFC06F03000A1E0DDCD3
:109680000ED042238168D1F87412890608D5002AC9
:1096900004494069B8BF524208F002BE4123F1E7D5
:1096A000704700BF7D7903000A1E0DDC0ED04423F5
:1096B0008168D1F87412890608D5002A04494069E6
:1096C000B8BF524208F0ECBD4323F1E7704700BF3A
:1096D0007D7903002DE9F0478568DFF8689004463E
:1096E00005F15600FDF788FD002395F83C7086B221
:1096F0009846A268558FED1BB54209DB002E1FDD91
:10970000563360691049BDE8F0471A4408F0C8BDF7
:109710001D442A44563392F856A082F85680A26817
:1097200060691A44494608F0BBFDA3682B4483F8DE
:1097300056A0A3685B8FDB1BF61A00272B46D8E7E1
:10974000BDE8F087056E03007172030008290A4620
:1097500017D8836893F83E10914212D083F83E20C8
:109760008368082AD3F8743205D0990609D50549CB
:10977000406908F095BD9B0603D50349406908F090
:109780008FBD704784790300E565030038B50D4649
:1097900009780446FFF7DAFF6A78072A11D8A36828
:1097A00093F83F1091420CD083F83F20A368D3F880
:1097B00074329B0605D560690249BDE8384008F05F
:1097C0006FBD38BD8D790300F8B58368B3F85020BC
:1097D0000446002A55D0B3F85210002951D0553113
:1097E00003F156050B441846A84206D3014611F86A
:1097F0000169202E3CD0A8423CD286B29DB2AB1B60
:109800009BB2591C471CD21A014438460CF00EFB7F
:10981000A268B2F85030711B13FA81F3A2F85030ED
:10982000A368B3F850201344002283F8562009B2ED
:10983000204608F09FFDA368D3F874329A0603D53A
:109840001049606908F02CFD3B460F4A082120466C
:1098500008F0ADFE2046FFF7FFFEA368D3F8743290
:109860009B060ED560690949BDE8F84008F018BDAF
:109870000846B9E7014611F80169202EBDD0084617
:10988000B9E7F8BDEA65030071720300EE650300F5
:109890002DE9F84F04460F4690460AB1FFF7DCFE6B
:1098A000A668D6F87432B6F852505B0724D505F195
:1098B00056003044FDF7A0FC2A4E0546B5B9A36812
:1098C000B3F85020A3F85220A06808F0F6FC30B19D
:1098D000B8F1000F00D017B16069FFF7C9FE7942F7
:1098E000204609B2BDE8F84F08F044BD6069314632
:1098F00008F0D6FC013DE1E73046FDF77DFCB6F807
:109900005090738F19FA80F915FA80F0B0FBF3F2DA
:10991000B9FBF3F39A42AA461BD0134DA3684845FE
:10992000CDDA5A8FB0FBF2F302FB1303461C13B9D6
:109930006069FFF79DFEA3685344204693F85630B4
:109940000AF1010B2A46082108F031FEDA463046BA
:10995000E4E75635054A73190821204608F027FE2A
:10996000ADE700BF2D85030081790300717203000C
:1099700013B583688DF80710D3F874220446D00716
:1099800025D5B3F85210B3F850208A421FD0481C96
:10999000A3F852000B449DF8072083F85620A368D3
:1099A000D3F87412890710D5D3F8743260690B4963
:1099B00013F0040F18BF2A2208F072FC204608F0AA
:1099C0008EFC10B16069FFF753FE02B010BD01229A
:1099D0000DF10701204608F0F7FDF6E78179030055
:1099E00010B504468368094A022108F0E0FDA36827
:1099F000D3F874329B0707D52046FFF76BFE20464D
:109A0000BDE8104008F091BC10BD00BF71720300AA
:109A1000014908F05CBE00BFC06F0300F8B50F46F7
:109A20005168044615461E4611B11A4608F05CFE00
:109A3000AB6883B131462046FFF736FE2046064A22
:109A40003B46082108F0B3FDA968F21D2046BDE899
:109A5000F84008F049BEF8BD967903002DE9F04FB3
:109A60000F46002189B0044616460D4603AA384623
:109A700001F10108FFF78EFDA8B98DB126B132467C
:109A80000821204608F093FDDFF89090DFF890B0B1
:109A9000002103AA384601F1010AFFF77BFD60B9F6
:109AA00009B0BDE8F08F006810B1FDF7A5FB80B2EA
:109AB000854238BF05464146D8E7D0F80080B8F166
:109AC000000F0FD098F8003063B14668154ACDE911
:109AD00000584B460821204608F069FD26B9606908
:109AE000FFF796FF5146D4E74B465A4608212046D9
:109AF00008F05DFDAB1DB2079BB209D131680A4A7F
:109B0000914205D1324641462046FFF787FFE9E7FB
:109B10001A463146204608F0E7FDE3E7BB7903002B
:109B2000A8790300A1790300C40BD286F7B50F68AA
:109B300005460E46EFB13846FDF75EFB84B2114B89
:109B4000009308213B46104A284608F030FD716812
:109B5000E31C9BB279B18A070DD108680B4A904289
:109B600009D10A463168284603B0BDE8F040FFF746
:109B700055BF3C46E3E71A46284603B0BDE8F0402F
:109B800008F0B2BDB7790300A7770300C40BD286F3
:109B900010B507490446FDF71DFB38B105492046BD
:109BA000FDF718FBB0FA80F0400910BD0120FCE77A
:109BB000AD790300B079030010B58368D3F874322F
:109BC0009B06044603D50649406908F0FDFDA368DD
:109BD00050225A87A36818221A87002010BD00BFA0
:109BE000F265030008B5836902491A6808F02CF889
:109BF000002008BDBE7903002DE9F3410D490E4C4C
:109C00000E4EDFF83C80054608F01EF80022B442F4
:109C100002F1010703D3002002B0BDE8F081236AFE
:109C20000093A36892B24146284608F00DF82C3400
:109C30003A46ECE7CE7903004864030074640300FD
:109C4000E679030008B5024908F028F8002008BDAD
:109C5000C16F030073B50E4E04460025A268E0688C
:109C60000DF1060302F5AB72012108F04BFEBDF8C1
:109C70000600A36840B12A4603F5AB73314620467F
:109C800007F0E2FF0135E9E783F8560102B070BD45
:109C9000F779030010B5044608F039F80349024685
:109CA000204607F0D1FF002010BD00BF1B75030048
:109CB000022907B50BD15368009312680B4B0C496E
:109CC00007F0DEFF6FF0150003B05DF804FB83685A
:109CD000084AD3F87432084913F0020F074B18BF33
:109CE0001A4607F0B1FF0020EEE700BF057A030037
:109CF0001A7A0300017A0300237A0300B96E030085
:109D000010B58368D3F874329A06044603D5074920
:109D1000406908F059FDA368D3F874329B0603D557
:109D20000349606908F050FD002010BDF96503008B
:109D3000FE650300F0B5012985B004460AD05368DA
:109D4000009312685D4B5E4907F09AFF6FF01500B3
:109D500005B0F0BD8368D3F87432990603D559492C
:109D6000406908F031FD6FF0F9012046FFF786FCED
:109D7000FA212046FFF798FCA06800254FF4807276
:109D8000294600F5AB708DF80B500CF069F84E4980
:109D9000606908F019FD606907F0C7FF4FF47A7633
:109DA0006068036801221F690DF10B0103ABB8471E
:109DB000039BEBB9013E4FF47A70B6B20BF086FB11
:109DC000002EEDD1A368D3F874329B0603D53F492A
:109DD000606908F0F9FCA3683D4950225A87A368DE
:109DE000182220461A8707F03DFF6FF00700AFE703
:109DF0009DF80B20A3681B2A53D093F856111B29FA
:109E0000CED1522A4DD15A19002382F85631A66874
:109E100096F857215B2A2BD106F25710022510F82D
:109E2000011F2A463B2905F10105ADB223D1FF2AC6
:109E3000C8D002F5AB7216FA82F1002211F8010FB8
:109E400018BB86F85601FA2AA16828BFFA224A8769
:109E5000FA2BA26828BFFA231387A368D3F87432B9
:109E60009A0603D51949606908F0AEFC00206FE737
:109E700086F85631A6E703EB8303303901EB430143
:109E8000B5F5807F8BB2CAD19CE7013502EB820227
:109E9000ADB2303800EB4200B5F5807F82B2CDD153
:109EA00090E72B440135ADB2092D83F856217FF69A
:109EB00077AFA368002283F8562183E7057A030071
:109EC0001A7A0300046603006E7A03000866030032
:109ED000347A03002DE9F04F074689B015468946CC
:109EE00021B1104608F089FD00285BD1032455E01C
:109EF0005C463CE029460AF5AB700CF004F80646D7
:109F0000002854D0FDF778F982B2601C0132314646
:109F100030440BF08BFF2246594630460BF078FF59
:109F20004FF020033355BAF8543001331C44AAF8DB
:109F3000544008F10108002401994B1C03AA48462B
:109F40000193FFF727FB0646E8B131680022284657
:109F500008F028FF0028EFD1D6F800B0D7F808A005
:109F6000BBF1000FC4D05846FDF746F984B2BAF8E9
:109F700054302344FF2BBDDD0E4A2B4603213846C7
:109F800008F015FB0124B8F1000F07D0B8682A4685
:109F900000F1540100F5AB7008F04AF8204609B012
:109FA000BDE8F08F4FF0000841460224C5E70224C7
:109FB000E9E700BF367F030008B50348034A0021E4
:109FC000121A08F05FFD08BDE00400209413002081
:109FD0000748084A084908B5121A08F055FD07480D
:109FE000074A0849BDE80840121A08F04DBD00BFF5
:109FF00000000020DC040020308503000000002069
:10A00000000000203085030038B505460C4699B1A4
:10A01000D1E901230F48096807F0F4F9D4E90423D2
:10A02000E1680D4807F0EEF9E1690C4807F0EAF93C
:10A03000A1690B4807F0E6F9012D05D1EFF3058181
:10A040000848103907F0DEF921462846BDE83840B7
:10A0500004F050BD887F0300B87F0300E87F030051
:10A06000F87F03002780030030BFFFF7FDBF00BF6C
:10A070002DE9F0410B4EDFF8308006EB0807CC1BD2
:10A0800005463246094920460BF0C2FEA019424659
:10A090000021083C0BF0E4FEC5F8B44007F10800CD
:10A0A000BDE8F0810000000008000000AC6503007E
:10A0B000054B5A699B689A421FBF044A536843F094
:10A0C00080535360704700BF0813002000ED00E08C
:10A0D0002DE9F843324D804632488946174607F04D
:10A0E00091F9AB6ADE0622D52F4807F08BF91124CF
:10A0F000AB6A1D0703D52D4807F084F91224284DBB
:10A10000AB6A980715D52A4807F07CF96E6BAB6AE5
:10A11000190642D52748314607F074F9B9F1000F06
:10A1200003D0AB6A23F08003AB62132403E0102456
:10A13000DEE76FF015061A4DAB6ADA0703D51E4845
:10A1400007F060F91424AB6A9B0603D51B4807F09F
:10A1500059F91524124B9A6AD50602D49A6A9007C7
:10A160000AD55B68190507D54146304600F0C2FAAA
:10A1700010B180F309880224094B9A6A920642BF03
:10A180005A6A22F400525A629A6A42F0FF029A62B4
:10A1900000233B702046BDE8F8836FF01506C4E746
:10A1A00000ED00E03B800300528003008680030046
:10A1B0009A800300B3800300CA800300EA80030092
:10A1C00010B51D4C1D4807F01DF9A36A990130D543
:10A1D0001B4807F017F91E20A36ADA0103D51948B6
:10A1E00007F010F91F20144CA36A1B0303D516486F
:10A1F00007F008F92120A36A590303D5134807F093
:10A2000001F922200C4CA36A9A0303D5104807F0E9
:10A21000F9F82320A36ADB0303D50E4807F0F2F810
:10A220002420054A936A6FEA03436FEA134393625B
:10A2300010BD1D20D0E700BF00ED00E01A81030033
:10A2400033810300478103006281030081810300A1
:10A25000A7810300C281030070B5244C0646244840
:10A260000D4607F0CFF8A36AD90435D5214807F089
:10A27000C9F81720A36A1A0503D51F4807F0C2F8CA
:10A2800018201A4CA36A9B050FD51C4807F0BAF892
:10A29000A16BA36A180407D5194807F0B3F81EB1DB
:10A2A000A36A23F40043A3621920104CA36A590542
:10A2B00003D5144807F0A6F81A20A36ADA050DD5CD
:10A2C000114807F09FF81B20084A936A43F47F4324
:10A2D000936200232B7070BD1620CBE7A36A9B040A
:10A2E000F2D50A4807F08EF81C20EDE700ED00E0FB
:10A2F000EE810300058203008680030017820300BD
:10A30000318203004782030063820300EA80030076
:10A310002DE9F0415B4B5F688AB00446C7F308063D
:10A32000002585F31188BFF36F8F02F07F43B3F1EF
:10A330007F4F06D102F00C03082B13D1524807F0CF
:10A3400061F800252C464FF00008F31E8DF80780B9
:10A35000092B00F28680DFE803F00A7A7E76848497
:10A360008484848210074CBF0C460125EBE74748E4
:10A37000444E07F047F88DF80780F36A9A0704D532
:10A38000434807F03FF8002330E0F36A002B01DA7E
:10A390004048F6E7F36A5B00F5D53F4807F032F82E
:10A3A0007369A26943F480737361BFF34F8FBFF386
:10A3B0006F8F736932F8022C23F480737361BFF3DB
:10A3C0004F8FBFF36F8F4DF602739A4209D0B36A75
:10A3D000DBB253B30DF1070201212046FFF778FEEF
:10A3E00033E021682D4807F00DF823689DF8072019
:10A3F000C2B902AE04F1200720686168324603C288
:10A400000834BC421646F7D1099AB5B3C2F3080125
:10A4100021B96FEA52226FEA4222099202A9184634
:10A42000FFF7F2FD0AB0BDE8F081B36A13F47F4F85
:10A4300005D00DF107010120FFF70EFF05E0B36A1B
:10A44000B3F5803F9FD3FFF7BBFE0346CEE70DF188
:10A4500007020021C1E70DF107010020ECE71048D9
:10A460008FE7104B1049114817F4F87FA6F110023E
:10A4700018BF194606F0C6FF85E722F4FF7222F0E6
:10A480000102CAE700ED00E0AA820300D6820300C1
:10A49000EE820300108303001F8303003F83030049
:10A4A0005C830300918203007C82030081830300AC
:10A4B000044B5A6942F010025A615A6922F00802AC
:10A4C0005A61704700ED00E0EFF30880EFF3098177
:10A4D00001B57246FFF71CFF01BD00BF0F4880F3B6
:10A4E000088803F035FC202080F311880C484FF0D9
:10A4F000AA014FF4046208F0C5FA09484FF4046158
:10A50000401880F30988EFF314800221084380F398
:10A510001488BFF36F8F00F0B5F800008050002062
:10A52000C0420020084B9B6883420BD1EFF30583A8
:10A5300043B1064B5A6842F080525A605A6A22F47C
:10A5400000425A6205F0AEBC0813002000ED00E0A6
:10A5500015498A684FF030001044EFF3098C80E809
:10A56000F01F202080F31288BFF36F8F0F4F4FF042
:10A5700000664A698A603E60D2F8B4000C4C2060E4
:10A58000D2F8B8000023C2F8B83080F3118804B5BF
:10A59000104600F017F9BDE8044002F1300090E8E1
:10A5A000F01F8CF3098870470813002004ED00E0C9
:10A5B000C40E00201EF0040F0CBFEFF30880EFF371
:10A5C0000980816911F8021C0229FFD001B5724689
:10A5D00008F05CFA01BD00BF40B2002807DB044A66
:10A5E0004109012300F01F00834042F821307047E9
:10A5F00000E100E040B200280CDB4309064900F00E
:10A600001F0020330122824041F82320BFF34F8FE7
:10A61000BFF36F8F704700BF00E100E0054B4209B8
:10A6200000F01F0053F82220012303FA00F010402D
:10A63000704700BF00E100E040B20028A8BF00F171
:10A64000604001F10101B8BF064B4FEA4111ACBFB8
:10A6500000F5614000F00F00C9B2B4BF195480F892
:10A660000013704714ED00E0044B054A23F07F030C
:10A670009360BFF34F8FBFF36F8F7047007002007E
:10A6800000ED00E008B5FFF7EFFF0B4AD2F8883085
:10A6900023F47003C2F88830EFF3148323F004032B
:10A6A00083F31488BFF36F8FFFF786FCFFF790FCEE
:10A6B00000F05EF804F0EAFA00ED00E042F8203C19
:10A6C000009B42F81C3C0A49019B42F8183C029B43
:10A6D00042F8143C21F001014FF0807342F8043C31
:10A6E00042F8081C0023203A0265C0F8B8307047D1
:10A6F000857702000A4A0346906878B113F1160F75
:10A70000D0F8A40005D0A0F140029A4205D88342B7
:10A7100003D2814228BF002070470020704700BF4D
:10A720000813002008B515460C4A0D4B9060D0F870
:10A73000B4201A600E4600F045F82C4686F30988CE
:10A740000020044B98472046002100220023024CA1
:10A7500020470000B12A030085770200081300207B
:10A76000C40E0020014B10221A61704700ED00E07A
:10A77000044800232021C2180133302B82F8001333
:10A78000F9D1704700E100E008B5EFF30583064A10
:10A79000103B02EBC30152F8330049688847BDE81B
:10A7A0000840FFF785BC00BFB4610300024B034AB9
:10A7B0000348012100F078B80000042000000020C8
:10A7C000406A0300D0F8A420054B403A1A60054ABD
:10A7D0004021C3E901121846012100F06FB800BF03
:10A7E000C80E002000000B15084AC2F898000B683C
:10A7F00023F01F03034343F01003C2F89C308B681F
:10A8000043F00103C2F8A030704700BF00ED00E044
:10A810002DE9F043DFF8608085B00E461F46044600
:10A820004FF00009B14523DA6068D8B13FB1411E4D
:10A8300008421BD11F2819D92368194216D1236851
:10A84000019308F058F9A36803430393D8F8905094
:10A85000C5F30725D0B2013DA84207D801A9FFF7EB
:10A86000C3FF421C09F101090C34DBE76FF015024C
:10A87000104605B0BDE8F08300ED00E0044B052272
:10A88000C3F89420BFF34F8FBFF36F8F704700BFA3
:10A8900000ED00E0BFF35F8F024B0022C3F894206D
:10A8A000704700BF00ED00E010B5034C0123227893
:10A8B000FFF7AEFF207010BD6313002008B50B4AF0
:10A8C00000231278FFF7A4FF10F1160F07D0084AF3
:10A8D0000021D2F89030C3F30723984200DB08BD73
:10A8E000C2F89800C2F8A0100130F2E7631300200C
:10A8F00000ED00E02DE9F043534B544CD3F8903079
:10A900002568C3F307239D4285B000F29A80FFF7C4
:10A91000C1FF00200C2685421AD14D4C4D4F2570A9
:10A920006846FDF727F9DFF82081DFF82C9106460D
:10A930000025AE4213D1237843490020D1F890205E
:10A94000C2F30722934276DBFFF798FF002042E034
:10A95000616806FB0011FFF747FF0130DBE7009855
:10A9600000EB05114FEA051CCB683B40B3F5000F27
:10A9700048D00AD8B3F5001F30D0B3F5800F36D0D9
:10A98000B3F5801F10D00135D3E7B3F1807F42D0FB
:10A99000B3F1007FF7D150F80C3088684A6808F0AE
:10A9A000AAF840F4802009E050F80C3088684A6822
:10A9B00008F0A1F840F0885040F43020CDE90123A0
:10A9C0000390D8F890302078C3F30723013B9842D6
:10A9D0002AD96FF0150005B0BDE8F08350F80C30AF
:10A9E00088684A6808F087F840EA0900E6E750F806
:10A9F0000C3088684A6808F07EF840F0C06040F487
:10AA00000030DBE750F80C3088684A6808F073F8CB
:10AA100040F08270D2E750F80C3088684A6808F03D
:10AA20006AF840F08870C9E701A9FFF7DDFE2378D6
:10AA300001332370A7E7C1F89830C1F8A0000133B3
:10AA40007CE74FF0FF30C6E700ED00E04C6A030002
:10AA5000631300200000F0FF00000811F0B587B07C
:10AA600007460E4614460021102268461D460BF08C
:10AA7000F7F902238DF802302A46054B019321464F
:10AA80006846CDE9047606F055F807B0F0BD00BF82
:10AA9000172B030008B5024B1B689847002008BD20
:10AAA000D40E0020034B044A1860937843F002034D
:10AAB00093707047D40E00208001002008B506492D
:10AAC000064821F00701C1F1005202F5802206F08C
:10AAD0002AFC002008BD00BF3F660020D80E0020E1
:10AAE00008B500F0B7F80A4941610A490122C0E9F6
:10AAF00000220A6008490A60084A00231360084AD5
:10AB000003611360C0E90233064A136008BD00BF49
:10AB1000C16F0300AC010020A8010020EC0E002052
:10AB2000E80E0020E40E00202DE9F04107460E4615
:10AB3000154600F08FF8C36804461BB943691A78BC
:10AB4000002A41D10023E3606368BB4256F823200A
:10AB500008DB324B6361204600F062F84FF0FF30B3
:10AB6000BDE8F081511C616192F80080B8F12D0FB1
:10AB7000EFD1911C61615178A1602D2904D19278A7
:10AB80006AB901336360E4E749B9244B6361414624
:10AB900028460BF07DF90028DDD0C4F80880D4F8F1
:10ABA0000880284641460BF073F9B8F13A0F636903
:10ABB00000D070B91B7813B9636801336360204615
:10ABC00000F02EF83F20CBE75A1C42611B788360CF
:10ABD000E5E742783A2A0BD0002222611B7813B9AC
:10ABE000636801336360204600F01AF8A068B7E795
:10ABF00018786268094928B901329742626004DD19
:10AC000056F82230C4E90431EAE761612D783A2D23
:10AC10002046D5D100F004F82846A1E7C16F030013
:10AC2000074B02681A60074B42681A60064B82683D
:10AC30001A60064BC2681A60054B02691A607047B9
:10AC4000AC010020A8010020EC0E0020E80E00203E
:10AC5000E40E0020004870479001002070B5416963
:10AC6000857A0C4E044659B1437ADB0706D4242377
:10AC700003FB0563DB691B689B68984700236361DE
:10AC800005EBC505214606EB8500BDE870400AF0DE
:10AC9000D2BD00BF2C040020024B242202FB003056
:10ACA000704700BF2C0400202DE9F04385B0054615
:10ACB0006846039190461C460AF0C5FFDDE900672F
:10ACC000EFF31189202383F31288BFF36F8F6B8A10
:10ACD000002B41D02A8A9A4225D9002200232846F7
:10ACE00004F03EFA0446F0B189F31188BFF36F8F88
:10ACF000039B002B41D032463B4668460AF0C8FF12
:10AD0000A27A264B242101FB02332046DB691B6813
:10AD100003A91D68DDE90023A847606170BB2046D8
:10AD2000FFF79CFF24E0698A4B1E6B8289F3118830
:10AD3000BFF36F8F2B7D2A8A2C6A1B3323F003030A
:10AD4000521A02FB0344154B154AEB1A9B1053434E
:10AD5000A3722B7DE372CBE789F31188BFF36F8F6A
:10AD600023464246284604F0FBF904460028BFD19A
:10AD70000024204605B0BDE8F0836361012300256F
:10AD80002381039B6382E27A6560294604F11800FF
:10AD90000BF066F863692582E360EAE72C04002083
:10ADA000398EE33870B50D4C242500B970BD037A97
:10ADB0004668002BFAD0013BDBB20372002BF5D1C1
:10ADC000C3604360837A05FB03439B6913B19847D3
:10ADD0003046EAE7FFF742FFFAE700BF2C04002005
:10ADE0000E4A0123C2F840354FF080424FF08051A7
:10ADF000C2F87835D1F83001082808D1D1F83411DB
:10AE0000052904D80648415C09B1C2F838364FF02C
:10AE100080430122C3F880250020704700E00140F4
:10AE2000A483030020B1034B800143F001031847C2
:10AE3000704700BF106603002DE9F04190F8203004
:10AE400003F01F03012B04460F4600F120061BD020
:10AE5000022B05D043BB90F8211008F081FC03E0E1
:10AE6000818CC9B208F059FC0546E8B1304608F0BB
:10AE700072F9024668688368A2B99B684BB13A468A
:10AE80003146BDE8F0411847818CC9B208F02CFC6E
:10AE9000EAE76FF085030BF0ABF80F4A1350002080
:10AEA000BDE8F081DB68E9E794F82110204608F05E
:10AEB00071F802460028ECD0304608F04CF940B951
:10AEC0001369002BE5D03A463146204698470346A1
:10AED000E1E7D368F5E700BF0C0000002DE9F04F73
:10AEE0000B7E33F0800893B00446174600F120092A
:10AEF00040F071844A7E02F0010097B117F10C0F07
:10AF00000FD088B917F1710F03D10846FFF74AFF38
:10AF100003E00846FFF746FFB846404613B0BDE8D9
:10AF2000F08F002800F04084002B40F00E840B8A44
:10AF3000072B0DD80846FFF735FF484608F00BF9F8
:10AF40000346A069002B00F03684802100F03CBC51
:10AF5000CA68136823625368C9F804304A68E58CEC
:10AF6000002AE7D0484608F0F6F808BB537E15B132
:10AF700013F0020F01E013F0040FDBD0002007F004
:10AF800030FF05460028D8D00BF032F894F8202086
:10AF9000B84E002312F0600F8351C2F341130BD05F
:10AFA000032B40F0B3810BF023F86FF0850340E0F2
:10AFB000002DBFD0537EDBE7484608F0CCF894F86C
:10AFC0002130002840F03981013B0A2BEBD801A148
:10AFD00051F823F021B10200A7AF0200A3B1020093
:10AFE000A7AF020001B00200A7AF0200A7AF0200A6
:10AFF000A7AF020073B00200A7AF0200D5B00200F5
:10B00000A069618C03697F29D3F88030CBD8A28CEA
:10B01000002AC8D1E28C002AC5D194F82020D2069B
:10B02000C1D194F82C20022A05D10AF0E1FF4FF09B
:10B03000FF33335013E01B0706D5C9B208F0C4F83C
:10B04000804620B1284661E7012384F8353094F822
:10B050002C30012B0BD1638C4BB984F82C300AF0C7
:10B06000C7FF3358002B00F05683284663E70123BF
:10B07000F3E7204607F002FF628CFF2A014692D8D0
:10B08000E38C002B8FD194F82030D8068BD194F824
:10B090002C30002BC9D02AB1D2B2204608F049FA90
:10B0A0000028C2D0618C94F834308B42D7D0C9B21A
:10B0B000204608F045FA80460028C3D1628C002A59
:10B0C00014BF0223012384F82C300521204608F008
:10B0D00055FDC4E794F8203003F01F03012B7FF4E3
:10B0E00062AFE38C002B7FF45EAF628CFF2A3FF6E9
:10B0F0005AAFA18CFF293FF656AF94F82C30022BA3
:10B1000093D1D2B2C9B2204608F02CFC10F1020F44
:10B11000804640F000810AF06BFF46F800809EE711
:10B12000E38CA18C002B7FF43EAF94F82C30002BE5
:10B130003FF47BAF012B0FD100297FF476AF12F0E3
:10B140001F020CD1638C012B89D194F868306FF306
:10B15000C30384F8683082E712F01F0217D0022A76
:10B160007FF47DAFB4F822A0BAF1000F7FF477AF7F
:10B170005FFA81F84146204608F0E6FC03460AF0F3
:10B1800037FF3350013306D14FF0FF385AE700291B
:10B190007FF44BAFD6E752464146204607F0E1FF29
:10B1A0005DE7E38CA18C002B7FF4FDAE638C022B5A
:10B1B0005FFA81F813D194F8203003F01F0358EAA6
:10B1C00003037FF4F0AEA0690122090A07F0D9FF5A
:10B1D00000287FF4E8AE012384F835303FE794F887
:10B1E0002C0000283FF421AF01280DD100297FF465
:10B1F0001CAF12F01F020AD1012B7FF430AF94F87C
:10B20000683043F00803A4E712F01F0211D0022AAD
:10B210007FF425AF002B7FF422AF4146204608F093
:10B220007EFC03460AF0E4FE33500133ACD0012229
:10B23000B2E700297FF4F9AEDEE70A2B3FF6B3AEA2
:10B2400001A151F823F000BF79B20200A7AF0200BC
:10B25000A7AF0200A7AF0200A7AF0200A7AF02008E
:10B26000F9B20200A7AF0200AFB60200A7AF02001A
:10B27000DDB602000C000000E38CA18C022B7FF4F1
:10B2800092AE94F82C30002B3FF4CFAE012B10D1AE
:10B2900000297FF4CAAE12F01F020DD194F8683075
:10B2A0004FEA930808F00208C3F3001348EA0308C2
:10B2B00006E012F01F0210D0022A12D04FF0000850
:10B2C00005F10C0A504607F0C8FDE38C98420ED2F7
:10B2D0000AF08EFE6FF00B03ABE600297FF4A5AEFB
:10B2E000DCE7C9B2204608F03EFC8046E8E741466C
:10B2F000504607F099FDB2E694F82020B4F822A059
:10B30000D2064FEA1A235FFA8AFA09D02946204664
:10B31000FFF792FD8046B8F1000F7FF493AE9EE6F2
:10B32000013B0E2B3FF63FAE01A252F823F000BFC7
:10B330006DB30200B7B302006FB40200A7AF020002
:10B34000A7AF020067B4020067B40200A7AF020013
:10B35000A7AF0200A7AF0200A7AF0200A7AF02008D
:10B36000A7AF0200A7AF0200B7B5020005F10C0AB3
:10B370005046B4F8268007F070FD80450AD2B4F834
:10B380002680204607F07AFD48B101287FF40BAEF5
:10B39000216F05E0504607F060FD8046F1E7E16E61
:10B3A000002900F013810A78424528BF42465046E2
:10B3B00007F029FD53E6204607F060FD0AF101027F
:10B3C00001900146D2B2204608F08DF8824600284E
:10B3D0003FF4E9AD05F10C08D0F804B0404607F0A1
:10B3E0003CFD9BF80020904203D2404607F035FD1B
:10B3F00002465946404607F006FDDAF80CA0BAF1BD
:10B40000000F09D1298AE38C99427FF628AEC91A28
:10B41000404607F013FD22E6DAF8040083681B6B50
:10B4200013B9DAF800A0EAE7019998470028F8D0A4
:10B43000A0F1040B5BF8043F002BF2D01B78002B2B
:10B44000EFD0404607F009FDDBF800301A78904253
:10B4500003D2404607F001FD82B2DBF800104046FF
:10B4600007F0D1FCE6E7204607F008FD9BE55246D1
:10B470000321204607F0CDFD824600283FF493AD1E
:10B4800007F064FEB4F826B0E0B9BAF81430ADF8AD
:10B490002830DAF8103005F10C081B88ADF82A3096
:10B4A000404607F0DAFC834508D2E08C9DF828205E
:10B4B000824228BF02460AA9404679E7404607F083
:10B4C000CCFCF3E700238DF814309AF81530DAF845
:10B4D00008208DF81530C24B1340C24A934258D110
:10B4E000102106A809F03CFC0028FFF65CAD0AAA72
:10B4F0001028DFF8F4E20DF1180C114628BF1020D7
:10B50000404502F1020233D8800002308DF8140069
:10B51000019105F10C0A504607F09FFC9DF814803C
:10B52000D84528BFD846404503D2504607F095FC81
:10B530008046B8F1020FC34628BF4FF0020B5A46AF
:10B5400005A9504607F05FFCA8EB0B08DDF804B036
:10B550004FEA58030BEB58025A4522D118F0010F5D
:10B560003FF47DAD019AD15C504607F055FC76E57D
:10B570001CF8013B4FEA131A03F00F031EF80AA050
:10B580001EF8033002F802AC02F8013C08F1010891
:10B59000B6E79AF814308DF81430DAF810300193C9
:10B5A000B7E71BF8011B5046CDE9023207F03CFC1F
:10B5B000DDE90232D0E7204607F060FC20B1012827
:10B5C0007FF4F1AC236F00E0E36E13B96FF0150860
:10B5D00038E55B88B3F5007F7FF6E5AC834B0A93D3
:10B5E00000238DF82C30A36C04F1480A9A455BD1F6
:10B5F00005F10C0B584607F030FCBDF82A80E38CAF
:10B60000984528BF9846404503D2584607F025FC88
:10B6100080469DF82820424528BF42460AA9584640
:10B6200007F0F1FBB8F1050F94BFA8EB0808A8F1EB
:10B630000508B8F1000F3FF412ADA36C53453FF479
:10B640000EAD002B3FF40BAD5A7D0F2A14D11A7D9D
:10B6500019690193424528BF4246584607F0D3FB7B
:10B66000019B1A7D424594BFA8EB0208A8EB08088D
:10B67000B8F1000F3FF4F3ACE26C9A423FF4EFAC48
:10B680001B68DEE75A7D0F2A0AD11A7DBDF82A1001
:10B690000A44ADF82A209DF82C2001328DF82C2088
:10B6A000E26C9342A4D01B68002BEBD1A0E794F886
:10B6B0002C3094F834A0002B3FF4B7ACE38C012B72
:10B6C0007FF471AC05F10C08404607F0C6FBE38C33
:10B6D0009842FFF4FDAD5146404646E794F82030CD
:10B6E00003F01F03012B7FF4A0AC204607F00FFFEF
:10B6F00000283FF49AACA38C4268FF2B3FF653AC72
:10B7000012799A42FFF44FAC0F2B3FF64CAC234416
:10B7100093F836A0D2E70123A362484607F01BFD49
:10B7200060B9E38C53B12946002007F05AFB054667
:10B7300000283FF402AC6B7E5E07F4D52946204614
:10B7400013B0BDE8F04F08F08AB950077FF5F5ABAC
:10B75000802B7FF4F2AB0846FFF724FBA36A012B92
:10B760007FF4DBAB94F83530002B3FF4D6AB94F884
:10B770002130052B05D1618CA069C9B207F024FDE9
:10B78000804694F82130032B09D1638C022B06D11B
:10B79000A18CA0690022090A07F0F3FC804600236F
:10B7A00084F83530FFF7B9BB52077FF5C6AB002BE5
:10B7B0003FF4ABABCCE7E38C002B3FF4C6AB17F107
:10B7C0000C0118BF0121C90108F057FF0023804672
:10B7D000A362FFF7A2BB6FF00408FFF79EBB00BF98
:10B7E00000FF020000030200AA830300050F05000A
:10B7F00002480022002309F074BF00BFE8030020C4
:10B800002DE9FF41514F4FF0FF334FF0FF3201A9B7
:10B81000384603F079FB039B1B69D3F89C409DF8E5
:10B820000430072BEFD8DFE803F00A041A0D2C27A9
:10B830007B8D00220121204608F0A0F9E3E70022D9
:10B840001146F8E794F8683043F0040301A984F83E
:10B850006830204607F0DAFC00220321EBE794F879
:10B8600068306FF3820301A984F86830204607F03E
:10B87000CDFC00220221DEE701A9204607F0C6FC2C
:10B88000C1E794F86830A6696FF3820384F86830E2
:10B890003369D6F80880BFF35B8FD3F8A030BFF3CD
:10B8A0005B8F9907C3F3400208D40421204608F0B7
:10B8B00065F94FF0FF352A460721BCE7D8F83C3040
:10B8C00030469847D8F82430002130469847D8F8B9
:10B8D0004030054630469847E5B92946204607F0EE
:10B8E0002FFE0546B0B98021204608F015F9A06961
:10B8F00008F076FF831E5842584194F8683084F867
:10B900002C5023F0680343EA401384F868302A4639
:10B91000042190E700220421204608F02FF9CAE70D
:10B9200002990B7ED1F81E2013F07F0F204606D11E
:10B93000FFF7D4FA054600283FF465AFBBE707F0F0
:10B94000E3FEF7E7029A062175E700BFE80300204F
:10B9500030B589B000220023CDE9062300246FF022
:10B960000703CDE90334CDE901441A4B1A49009489
:10B970004FF48062194803F035FF1949174803F066
:10B9800061FE184B18498B4207D3184B1849002009
:10B990008B4210D3002009B030BD03F11402BFF375
:10B9A0005B8F52E8000F42E80045002DF9D1BFF34C
:10B9B0005B8F1833E7E703F11402BFF35B8F52E8A4
:10B9C000004F42E80005002DF9D1BFF35B8F18331B
:10B9D000DEE700BF01B80200403C00203007002035
:10B9E000BB830300C4040020DC040020DC0400202E
:10B9F000DC04002038B5024609490546806908F094
:10BA000056FF044648B985F83400284607F06FFC15
:10BA1000044610B1A86908F07DFF204638BD00BF7C
:10BA2000F1B7020070B5084C084E0546B44202D387
:10BA30000024204670BD636828461968FBF7CAFBDE
:10BA40000028F6D01834F1E7C4040020DC040020FC
:10BA500070B50646EFF31181202282F31288BFF3FE
:10BA60006F8F1D4C236881F31188BFF36F8F5B6864
:10BA700093F86830DB0705D4BDE87040212200232D
:10BA800003F0DABDEFF3118382F31288BFF36F8FF7
:10BA9000256865B983F31188BFF36F8F2368D3B12D
:10BAA00030460022BDE87040002303F091BD61687C
:10BAB0002A6822608D4208BF626083F31188BFF359
:10BAC0006F8F686805F10801C369984703482946E4
:10BAD00009F0B7FDE2E770BDF00E0020A4030020DE
:10BAE00030B585B06C4684E806000546002215484E
:10BAF000002303A903F070F90246E8B9039B94E818
:10BB000003005D60083383E80300EFF31180202316
:10BB100083F31288BFF36F8F039B1A600A4A516840
:10BB200061B9C2E9003380F31188BFF36F8F074812
:10BB30000022002303F04CFD05B030BD0B605360C4
:10BB4000F1E700BFA4030020F00E00200000002059
:10BB500038B54B78046945682069202B08D0222B22
:10BB600019D00AF045FA114B6FF085021A5010E017
:10BB7000CB88072BF5D1D3681A6842609A88028176
:10BB80009B79837208F01BF822460821284608F0AA
:10BB900003F8002038BD4B888381C3F3400203F0D3
:10BBA00001030276437622460921EFE70C000000EC
:10BBB00008B51346026910694A78212A13D133B9AE
:10BBC0000AF016FA0B4B6FF00B021A5009E0CA8804
:10BBD000072A00F1040128BF072203F10C0007F037
:10BBE00012F9002008BD0AF003FA024B6FF085023B
:10BBF000EBE700BF0C00000073B504698DF8071077
:10BC00002025EFF3118685F31288BFF36F8F012291
:10BC1000E06B0DF1070105F082FD86F31188BFF39B
:10BC20006F8F012812D009F097FE08B9A37EABB937
:10BC30000D4BBFF35B8F012253E8001F002903D196
:10BC400043E800200028F7D1BFF35B8F21220023B7
:10BC500004F1480003F0BCFC02B070BD00212120BB
:10BC600009F046FFCDE700BFF80E002038B50569A2
:10BC70000E49EB6B0024C3E90144DC606B6B05F1FA
:10BC80004800C3E90144DC6009F05AFE05F1780080
:10BC9000074909F029FE074905F1240009F024FEAF
:10BCA000284607F08CFF204638BD00BFB73D030093
:10BCB0004D400300D9400300F8B587681446FB6B7C
:10BCC00005460E4698472146064800220023FEF707
:10BCD000EBFF044600B1067628463B6C98472046A9
:10BCE000F8BD00BF2C0400204FF08053D3F8302162
:10BCF000082A06D1D3F83431052B04D8034AD05C86
:10BD00007047002070470120704700BFDC830300AC
:10BD100010F0080F0B4B42B20CD100F00F00002ABC
:10BD20004FF0140202FB0033B4BFD3F80806D3F877
:10BD300008077047002AB4BFD3F8A806D3F8A807AD
:10BD4000704700BF00700240F8B50246EFF311855E
:10BD5000202383F31288BFF36F8F00F0080708F0E9
:10BD6000D4FE0126864012F07F0F1E4B6FEA0604B8
:10BD700032D057B11A6822401A601B4BC3F86C646A
:10BD800085F31188BFF36F8FF8BD184F396821FA1A
:10BD900000F0C0070AD419682140196014490B68E3
:10BDA000120654BF234033430B60E6E7214039605D
:10BDB00051B2C94322F08000C90F00F2DA30090104
:10BDC00001EB40010848C0F80018D0F8041841F011
:10BDD0000201C0F80418DEE7196821401960002F3D
:10BDE000CBD1DBE7540F002000700240500F002041
:10BDF000580F0020EFF31180202383F31288BFF344
:10BE00006F8F0A4BD3F8001C032261B949F27531D8
:10BE1000C3F8001CC3F8142DC3F8001C80F311886C
:10BE2000BFF36F8F7047C3F8142DF7E700E00640AB
:10BE3000EFF31180202383F31288BFF36F8F0A4B37
:10BE4000D3F8001C61B949F27532C3F8002CC3F86D
:10BE5000141DC3F8002C80F31188BFF36F8F704757
:10BE60000022C3F8142DF6E700E0064070B5024644
:10BE700008F04BFEEFF31185202383F31288BFF304
:10BE80006F8F531E0124062B04FA00F40FD80E4EB8
:10BE90000E4B31681B680B43C34013F0010306D1FE
:10BEA0000B4802F59472214340F822303160094A70
:10BEB000136823431360084B8022C3F8042185F3E1
:10BEC0001188BFF36F8F70BD500F0020580F0020F6
:10BED00000700240540F002000E100E0F8B50306B6
:10BEE000044623D410F0080720D100F00F0292007E
:10BEF00002F1804202F51C32D2F84434B3B1EFF3C0
:10BF00001186202383F31288BFF36F8F08F0FDFDA5
:10BF1000084DC2F8A074012303FA00F12B6823EA4C
:10BF200001032B6086F31188BFF36F8F024BC3F8B8
:10BF30001845F8BD580F00200070024008B50B7E70
:10BF4000012203F00F0013F0800F02FA00F2124BEF
:10BF500012D0D3F81005104218D00B7E1A0709D45E
:10BF60000D4AC2F80C3543F48073C2F80C35087ED4
:10BF7000FFF7B4FF002008BDD3F814051042ECD140
:10BF8000D3F814050243C3F81425E6E7D3F81005E7
:10BF90000243C3F81025E0E7007002400B7E064A1A
:10BFA00013F07F0F0BBF012343F480735365C2F876
:10BFB00018350020704700BF0070024038B50446B5
:10BFC0000D4608F052FDA8B12946204608F038FD7C
:10BFD000204608F043FD10B12846FEF7E3FE29464F
:10BFE000204608F050FD064B1B7813B9054B012283
:10BFF0001A6538BD204608F03FFD0028E4D1E7E788
:10C000006A1300200070024038B545682C4654F889
:10C01000040B01F04BF8094B002218600121272086
:10C02000FEF70AFB204602F0B3FC05F1080002F01F
:10C03000F5FC09F036FA002038BD00BF0C0F0020D7
:10C04000012810B5014602D0022807D098B90A4B42
:10C05000BDE810401868002208F010BA074B084CE1
:10C0600000221A70074BC4F800332720FEF7B4FAF9
:10C070000123C4F8043510BD5C0F002067130020B5
:10C0800000700240FDFFDF010146014809F0AFBE2C
:10C090002004002008B5054B1970054B1B7813B11F
:10C0A0000420FFF7F1FF002008BD00BF6813002047
:10C0B000691300202DE9F04F494B0769186089B0DA
:10C0C000054607F1840009F01BFB00220023CDE99F
:10C0D000062300246FF00703CDE90334CDE90144C2
:10C0E000404B414900954FF40072404803F07AFB01
:10C0F0003F4E40493D48DFF80091DFF800A103F0D2
:10C10000A1FA32693E4B134043F4820343F04003EB
:10C110003361B04634763146284608F06AF9002883
:10C120005AD10134092C18D008EB4412082C937C06
:10C1300043F04003937408D1D8F81031314A1A40C3
:10C14000314B1343C8F8103105E0136909EA0303C2
:10C1500043EA0A0313612036DCE72C4C2C4B22699E
:10C16000DFF8A090DFF8A0A0DFF88CB0134043F414
:10C17000041343F0400323610646A04666F07F03A4
:10C1800023762146284608F034F928BB0136092ECB
:10C190001AD008EB4612082E937C43F020039374C8
:10C1A00008D1D8F8103109EA030343EA0A03C8F8B2
:10C1B000103107E013690BEA030343F4C02343F093
:10C1C000400313612034D9E797F8803023F07603D9
:10C1D00043F0760387F8803009B0BDE8F08F00BFE8
:10C1E0005C0F002025C3020080400020F0070020E3
:10C1F00080100020D38303000000F9FF40000600F8
:10C200000000BEFF0000F7FFFF010800600F0020E4
:10C210000000DEFF38B50D4628461146144608F0EA
:10C220001BF9287E802809D1238A3BB9637E5B07EE
:10C2300004D54020FFF728FF002038BD08F065FC3A
:10C240000146024808F0A8FC0120F3E7A4110020F1
:10C2500008B5064A0B7EC2F80C3543F48073C2F869
:10C260000C35087EFFF73AFE002008BD0070024042
:10C2700010B50C7E4FF0FF324FF0FF33114802F043
:10C28000D5FF2046FFF760FD04F00F020123934025
:10C290000D4A14F0800F14BFD2F81015D2F81415FF
:10C2A0006FEA030315BF0B400B40C2F81035C2F80C
:10C2B0001435044802F086FF044B8022C3F80421A1
:10C2C000002010BD100400200070024000E100E0DA
:10C2D00070B505460E7E0C464FF0FF324FF0FF332F
:10C2E0000E4802F0A3FF3046FFF72EFD0B4802F088
:10C2F00069FF0B4B8022C3F80421204608F093F815
:10C30000014620B16FF07002284608F0C3F82046BD
:10C31000002108F069F8002070BD00BF1004002063
:10C3200000E100E02DE9F04FBC4FBD4D85B0044663
:10C330004FF0FF384FF0FF390022CDE900894FF070
:10C34000FF31384609F05AFD4FF0FF31384609F009
:10C3500051FD10F0080F82462ED0B24842464B469F
:10C3600002F064FFEFF31182202383F31288BFF3FE
:10C370006F8FAD4B1B787BB1D5F8003413F400738D
:10C380000AD10121C5F82C15D5F82C15D5F80014C3
:10C39000890548BFC5F82C3582F31188BFF36F8F2C
:10C3A000A04802F00FFF0121204607F0F0FF002215
:10C3B0000321204608F062F81AF0100F08D000217F
:10C3C000204607F0E4FF00220221204608F056F83C
:10C3D0001AF0200F08D00021204607F0D8FF0022D5
:10C3E0000221204608F04AF81AF0020F40F085803A
:10C3F0001AF0010F10D0BFF35B8F8C4B002253E873
:10C40000006F43E800210029F9D1BFF35B8F4FF0A3
:10C410000108002E40F0DA801AF0400F0AD0802187
:10C42000204607F0D4FF07F0FAFF014610B120467E
:10C43000FFF7C4FD1AF0040F3FF47AAF0021204645
:10C4400007F0C5FF80218046204607F0C0FF064662
:10C45000404607F0E8FF08B1FEF7A4FC304607F0BD
:10C46000E2FF08B1FEF79EFC0021404607F0BCFF4A
:10C470003046002107F0B8FF08220021204608F0CE
:10C480009FF9064600283FF453AF07F0E7FFD5F8C1
:10C490008014F368C9B21970D5F88424D2B25A70E6
:10C4A000D5F88804D5F88CC440EA0C2058801FFACF
:10C4B00080FED5F89004D5F894C440EA0C2098800A
:10C4C000D5F89804D5F89CC440EA0C201FFA80FCEB
:10C4D000D880574811B9052A00F08F80DFF854C181
:10C4E00000220270D5F870149CF800C08C4540F012
:10C4F000A780514B00221A70B2E0504BBFF35B8F04
:10C50000002253E8008F43E800210029F9D1BFF34E
:10C510005B8F4FF00109B8F1000F3FF469AF98FA53
:10C52000A8FBBBFA8BFB09FA0BF3BBF10F0F28EA50
:10C53000030810DDABF11006F6B23146204607F0D5
:10C5400046FF029007F06BFF834630BB3146204622
:10C5500008F0F9FADFE74BF080063146204607F095
:10C5600036FF029007F05BFF039058B1029800215C
:10C5700007F03AFF039BBBF1000F08D11946204694
:10C58000FFF71CFD3146204608F0C7FAC3E700223A
:10C590001946204607F07EFFF4E70298002107F0D5
:10C5A00023FF6EB92046594608F06DFA204608F080
:10C5B0005CFA0028CAD05946204608F0D6F9C5E7EB
:10C5C00000225946204607F065FFBFE796FAA6F31A
:10C5D000B3FA83F308FA03F20F2B26EA020606DD0C
:10C5E000A3F11001C9B2204608F0ADFA11E743F0FB
:10C5F0008001204608F091FA0BE701220270BCF19D
:10C60000000F03D03046FEF7CDFB91E60EF07F021F
:10C610005A8083F804C083F805C06AE7200400202C
:10C62000007002401004002067130020A4110020B5
:10C630006A1300206813002069130020A011002055
:10C64000DFF8A0C01A7001218CF8001001700521DC
:10C650005970D5F8701459801A715A719A71DA713B
:10C66000082106F10C0006F0C8FB2046314608F010
:10C670000AFA204608F0EBF920B31B4B4FF00008F4
:10C6800083F80080F36841462046B3F806A007F01F
:10C690009EFE414681465246204608F091F80146EA
:10C6A00048B1484607F0D8FE4146204608F04BFA0C
:10C6B0000123EB643CE66FF00B023146204607F0A5
:10C6C000E9FE35E6204608F0C9F930B1064B802274
:10C6D00020461A7008F06FF92AE6204608F091F912
:10C6E00026E600BF69130020661300204FF0805338
:10C6F000D3F83031082B02BF024B0022C3F81C2CA8
:10C70000704700BF007002402DE9F04105464FF030
:10C71000FF324FF0FF33384802F088FD374B80225C
:10C72000C3F884212720FDF779FFA0B1344F354BA2
:10C730003C681B68240C24041C434FF001088CBB8C
:10C74000314E40F2FF133B602720C6F80445FDF749
:10C7500051FFC6F800432D4A13788BB12A4B0021B4
:10C76000C3F808110121C3F80026C3F80416596064
:10C77000D3F808110029FBD00021C3F8081111706B
:10C78000214B0024C3F80045FFF7B0FF1A4802F020
:10C7900019FD2146284607F035FFC0B16FF00400AF
:10C7A000BDE8F08194FAA4F6B6FA86F60F2E334669
:10C7B000C6BFA6F11003D8B243F08000030701D42E
:10C7C000FFF7C2FA08FA06F624EA0604B7E7802162
:10C7D000284607F017FF0028E0D10D4B0D491C68D3
:10C7E000204604F014FF10F1780F02D1204604F027
:10C7F000EAFE00EAE070D3E71004002000E100E068
:10C80000580F0020540F00200070024064130020D5
:10C810000C0F0020FC0E00202DE9F04F404B414F43
:10C82000D3F8542185B0B2B10022C3F85421D3F813
:10C83000042391020FD5D3F8C034002B3B6814BFFA
:10C840004FF001224FF480721343374A3B60136864
:10C8500023F001231360324BD3F8604134B100223E
:10C86000C3F86021D3F86C44C3F86C44D3F8282192
:10C870004AB10022C3F828212C4B187808F045F95A
:10C88000012383401C43DFF8A8A09AF800509AF9CE
:10C8900000102A0732D40029B4BF264B264B05F0DE
:10C8A0000F02920013441A68002A5AD000221A601C
:10C8B0002846FFF72DFA214B1A7800F0010050406E
:10C8C0001870FFF713FF1E4B28461A6808F01DF971
:10C8D000C240D30706463BD4002916DA882D06D17C
:10C8E0000146184808F058F90220FFF7CDFB0E4A20
:10C8F00001231168B3400B4313602FE0124B134A1E
:10C9000013EA210338BF1346CDE701460D4808F06E
:10C9100043F90220FFF7B8FB013D062DE7D91DE0E2
:10C9200000700240580F0020500F002066130020B6
:10C93000651300200871024030710240641300202A
:10C94000540F0020A01100202C71024050710240B1
:10C95000002D40F0F0809C4B0122DA649B4802F0ED
:10C9600031FC94B13B689A4ADFF86882DFF868923C
:10C9700024F001210B433B60136823EA0103136099
:10C98000A4B20126002C40F0DA808F4BD3F80021AE
:10C990004AB10022C3F80021904B1A708D4B04213C
:10C9A000186807F06BFD884BD3F858212AB3002292
:10C9B000C3F85821D3F80044C3F80044E00505D576
:10C9C000864B012208201A70FFF75EFBA10505D5F2
:10C9D000824B002210201A70FFF756FB62050CD51F
:10C9E0007E4B1A784AB100221A70774B0122C3F8A5
:10C9F000082520209A65FFF747FB734B784CD3F846
:10CA00005C31E3B1714B9B681BB99AF800305B064F
:10CA100015D06D4B0022C3F85C2123686C4A23F0CB
:10CA2000011323603B6823F4803343F001033B6030
:10CA30001368042023F001131360FFF725FB24681B
:10CA40003B681C4074D0604BD3F82C35002B6FD161
:10CA50005E480022002302F0E9FB002868D114F0B0
:10CA6000012314BF93FAA3F494FAA4F4B4FA84F45F
:10CA70000F2C88BFA4F11008564B8CBF5FFA88F8C2
:10CA800044F080081868414607F0A1FC009007F0C8
:10CA9000E1FC4FFA88FB08F00802BBF1000F0346E7
:10CAA000019208F00F0980F29F80009B058A5B8B42
:10CAB000C668C3F30A039D4206F0604271D9B2F121
:10CAC000005F1D4605D031464648464E1A4609F0DD
:10CAD0009FF94FF080530121D3F83031082B02BF6A
